:020000040000FA
:020000000628D0
:080008002020090083160313F8
:100010000330860087018801C730810083120313F3
:100020008B018B170B170B16850186018701880141
:100030008901AC01AD01AE01AF01B0018615932875
:10004000A100030E8301A2000A08A3008A018B1CF1
:1000500062288B100108AA002E08AB000808A40033
:100060000708A5002C08A6002D08A7002F08A80047
:100070003008A90085018601870188018901AC014A
:10008000AD01AE01AF01B00187170B128B1E4A28DC
:100090008B122D148320061C4B282D1C50288B16E8
:1000A00024088800250887002608AC002708AD0032
:1000B0002808AF002908B0002B08AE002A088100EC
:1000C0000B167C280B1D7C280B112C186C282D1A64
:1000D0007028AC1878287428AF0A643081007C2816
:1000E000B00A783081007C28AE0A063081007C2876
:1000F000AE0A0B3081007C2823088A00220E830080
:10010000A10E210E0800C830B100FA30B200000084
:10011000000000000000000000000000B20B872873
:10012000B10B852808000301861801300000A000EB
:100130000301871A01302004A0000139031DA22801
:100140008712A328871620080301861801300000B3
:10015000A0000301081801302004A0000301071CBF
:1001600001302005A0000301871C01302005A000FC
:100170000139031DBD280810BE28081420080719DE
:10018000D128081CD128AC19C928063081008B164B
:10019000AC1523302E06031DD128AC112D15AE0150
:1001A0008B120301071901300000A0000301081899
:1001B00001302004A0000301AC1D01302005A00087
:1001C0000301071901302004A0000139031DEA28AA
:1001D0000711EB280715200887180029071D00299B
:1001E000081C00292C1AF828063081008B162C16C2
:1001F00023302E06031D00292C12AD14AE018B12E4
:100200000301871801300000A00003010818013025
:100210002004A00003012C1E01302005A0000301D2
:10022000071901302005A0000301871801302004C0
:10023000A0000139031D1E2987101F2987142008DB
:1002400007183929871C39290818392988183929A4
:10025000081A3929AC1831290B3081008B16AC14DF
:10026000061510302E06031D39290611AC10AE01FB
:100270008B120301881801300000A00003018718C9
:1002800001302004A0000301AC1C01302005A000B7
:100290000301071901302005A0000301071C0130EC
:1002A0002005A0000301081C01302005A000030167
:1002B000081E01302005A0000139031D61298810A6
:1002C00062298814200807187729871C7729881C39
:1002D0007729AC1A6F29063081008B16AC162330B3
:1002E0002E06031D7729AC122D14AE018B120301CB
:1002F000071801300000A000030188180130200415
:10030000A0000301AC1E01302005A00003018718E6
:1003100001302005A0000301071801302004A000CF
:100320000139031D95290710962907142008030198
:10033000081B01300000A0000301881801302004D0
:10034000A0000139031DA6290813A72908172008B2
:10035000081FBB29071CBB29871CBB292C1BB429E0
:10036000063081008B162C1799302E06031DBB29F1
:100370002C13AE018B120301081B01300000A000FA
:1003800003012C1B01302005A00003018818013057
:100390002004A0000139031DCF290813D029081714
:1003A00020080301871901300000A0000301081F85
:1003B00001302004A0000301071901302005A0002E
:1003C0000301871801302005A00003010718013040
:1003D0002005A0000301881C01302005A0000301B6
:1003E0002C1801302005A0000139031DF92908113E
:1003F000FA2908152008081A0F2A87190F2A071C3E
:100400000F2A081B0F2A2C18092A643081008B162A
:100410002C1464302F06031D0F2A2C108B1203019D
:10042000871901300000A0000301081901302004E1
:10043000A00003012C1C01302005A0000301081EB0
:1004400001302005A0000139031D282A8711292A1F
:1004500087152008871D3B2A081A3B2A2C19342AA5
:10046000063081008B162C152F302E06031D3B2ADB
:100470002C11AE018B120301081A01300000A000FC
:100480000301871901302004A00003012C1D013055
:100490002005A0000301071901302005A000013943
:1004A000031D542A0812552A08162008081A592A2A
:1004B0008E2A0718602A87186D2A07197A2A8E2A29
:1004C000AC1E882A23302E06031D8E2AAE018B1205
:1004D000AC12AC112C122D108E2A2C1E882A23301F
:1004E0002E06031D8E2AAE018B12AC12AC112C12FB
:1004F000AD108E2AAC1D882A23302E06031D8E2AAD
:10050000AE018B12AC12AC112C122D11AD158E2A2E
:10051000063081008B16AC152C16AC16030107189B
:1005200001300000A00003012D1801302005A000BB
:100530000139031D9D2A07109E2A07142008030174
:10054000871801300000A0000301AD18013020051C
:10055000A0000139031DAE2A8710AF2A8714200896
:100560000301071901300000A00003012D1901301B
:100570002005A0000139031DBF2A0711C02A071555
:100580002008881DD02A2D1AC92A783081008B16A0
:100590002D1678303006031DD02A2D12AD118B1286
:1005A0000301881901300000A0000301071D01307C
:1005B0002004A0000301AD1901302005A0000301B3
:1005C0002D1A01302004A0000139031DE92A8811E9
:1005D000EA2A881520080301871A01300000A000CC
:1005E0000301081C01302005A0000301071D013094
:1005F0002005A0000301081E01302005A000030112
:10060000881D01302005A00003012D1E01302005AA
:10061000A0000139031D0E2B07120F2B071620080F
:100620000301881B01300000A0000301071A0130FC
:100630002004A0000139031D1F2B8813202B8817CD
:100640002008881F312BAC1B292B063081008B160C
:10065000AC174E302E06031D312BAC13AE018B129E
:10066000AD160301881B01300000A0000301AC1B84
:1006700001302005A0000139031D402B8813412BB8
:10068000881720080301881A01300000A000030128
:10069000871E01302004A0000301AD1A013020059F
:1006A000A0000301881A01302004A0000139031DB5
:1006B0005B2B88125C2B881620080301071A013077
:1006C0000000A0000301881B01302005A0000301E9
:1006D000081A01302004A000030188190130200409
:1006E000A0000301081901302004A000030108182C
:1006F00001302004A0000301081B01302004A000E9
:100700000301871901302004A0000139031D8A2B41
:1007100087128B2B871620080301071B013000006E
:10072000A0000301871E01302004A0000301881AE5
:1007300001302005A0000301071B01302004A000A8
:100740000139031DA52B0713A62B0717200803014A
:10075000861901300000A000030186190130200431
:10076000A0000301871E01302005A0000139031DF0
:0C077000BB2B8611BC2B8615200893289B
:02400E00393F38
:00000001FF
