:0200000089284D
:10000800FF00030E8301AF000A08B0008A018C1EAE
:1000180022281819122898181228152818121816A4
:10002800222805100D30FC00FB30FD00FD0B1A28BE
:10003800FC0B1A28000000008514772030088A007D
:0A0048002F0E8300FF0E7F0E09004B
:0C0052008316031398182E282928080094
:10005E00831203133408F2007208F000F20A7008DB
:10006E008400000803193C28332834087202F0007B
:0C007E000130F002F101031CF103080046
:0E008A00831203132E088A002D08820008003E
:1000980083120313B201B3013108B4002F2080305A
:1000A8003306F200803071067202031D5D28700865
:1000B800320203186A2832083107840000089900C0
:0E00C80029208312B20A0319B30A5028080037
:1000D60045208A110A128000840AAD0A0319AE0A65
:0800E600F003031D6B28080064
:1000EE00831203131A089900292083120514413034
:1000FE00FC00EE30FD00FD0B8228FC0B8228000078
:04010E008510080050
:10011200433083120313A0006F30A1006D30A200A0
:100122006D30A3006130A4006E30A5006430A600DB
:100132002030A7003A30A8002030A9000D30AA00D4
:100142000A30AB00AC01803083168100193099006F
:1001520024309800903083129800203083168C004F
:10016200C0308B00F0308500023086008312860199
:0C01720085012030B1004C20BD28BE28C3
:02400E00292166
:00000001FF
