:1000000040EF05F00000000000EF00F000000000ED
:0A0010000000000000000000F3D71C
:08001C000AAE029E000E120064
:100024000B840BAE1DEF00F0010E036E026A016A31
:0A003400006A0A360232FF0E1200C5
:0E003E00026A016A006A086A036A000E120074
:10004C000B820BAE30EF00F00368026801680068A9
:08005C000A360232FF0E120009
:080064000B6A0B86FF0E12006F
:10006C000C6A0E6A0250D8A44FEF00F001C002F0E7
:10007C0000C001F0006A0E860250D8A44FEF00F0C9
:10008C0001C002F0016A0E960E880250D8B461EFDE
:10009C0000F00E50035ED8A4D8A066EF00F0D89004
:1000AC0002BE6BEF00F0003601360236032E56EF1F
:1000BC0000F066EF00F0010E0C6EBBDF6EEF00F08F
:1000CC00020E0C6EA9DF6EEF00F0040E0C6EA0DFBA
:0200DC00120010
:1000DE000D6A086A0050D8B4000C04180A6E0ABEE5
:1000EE000D1E0B6A04AE02D0041E042A00AE02D00E
:1000FE00001E002A005004100A6E0ABE1FD00450C3
:10010E00085E003600340836045008260036060E07
:10011E000C6E00340836045000B0085E00A00826AD
:10012E0000360C2EF6D700A008260BB015D00DAE5B
:10013E00000C001E002A081E082A000C04AE09D06E
:10014E0000BE04D00050086E006AF1D7006A002A83
:10015E00000C001E0B2AD3D7082A0450085CD8A422
:0E016E00E6D7086A002A00AEE2D7FF0C1200A6
:10017C0081C004F082C005F004C002F005C003F099
:10018C00044A052A83C000F084C001F00001834BAF
:10019C00842B00C0E9FF01C0EAFF02C0E1FF03C0ED
:1001AC00E2FFEECFE6FF02C0E9FF03C0EAFFEE522A
:0E01BC0001E0E2D781C000F082C001F0120025
:1001CA00086A096A000E076203646AEF01F00250C6
:1001DA0006180A6E075003267E0ED8A0FBEF00F021
:1001EA00035ED8B06EEF01F0FFEF00F0035ED8A017
:1001FA0072EF01F0028E068E02C00EF001C00BF003
:10020A0000C00DF000500402F4CF0CF001500502BA
:10021A00F4CF00F0F3CF08F00402F3500C26F450A8
:10022A000822000E00220D500502F3500C26F4504D
:10023A000822000E002202500402F3500826F4504D
:10024A00002202500502016A000E0122F350002624
:10025A00F45001220D500602F3500826F4500022F1
:10026A00026A000E012202220B500602F3500026F7
:10027A00F4500122000E02220E500602F35001260B
:10028A00F450022202BE52EF01F00836003601365F
:10029A0002360306D8B472EF01F065EF01F0D88098
:1002AA00800E08640030000E002201220222D8A02B
:1002BA0065EF01F0023201320032034A6EEF01F0BB
:1002CA000AAE029E000E74EF01F0010EB3DE74EF67
:1002DA0001F0020EB6DE74EF01F0040E9EDE12008B
:1002EA000A6A0350D8A40A800750D8A40A820A507E
:1002FA00D8B4D8EF01F0030AD8B491EF01F00AB0EC
:10030A008CEF01F006AED6EF01F0D4EF01F002AEA9
:10031A00D4EF01F0D6EF01F00250800B0A6E029E74
:10032A000650800B069E0A18D8B4A2EF01F00A50B4
:10033A00D8B4D4EF01F0D6EF01F00750035CD8B47B
:10034A00ACEF01F0D8A0C8EF01F0CEEF01F00650F3
:10035A00025CD8B4B6EF01F0D8A0C8EF01F0CEEF36
:10036A0001F00550015CD8B4C0EF01F0D8A0C8EF85
:10037A0001F0CEEF01F00450005CD8B4D8EF01F0E0
:10038A00D8B0CEEF01F00A52D8B4D6EF01F0D4EFCC
:10039A0001F00A52D8B4D4EF01F0D6EF01F0D880B8
:0E03AA001200D8901200D880D88412001200E1
:0E03B800ACB202D00000FCD77EC0ADFF120038
:0A03C600070E0D6E0D2EFED712007B
:1003D000736A70C0E9FF71C0EAFFEECF72F072502D
:1003E000000A0DE072C07EF0E7DF732A73507024BC
:1003F000E96E000E7120EA6EEECF72F0F0D71200B7
:100400000900F5CFE6FF0006FBE10106F9E1120065
:10041000B80E606E030E616E7E0E626E000E636E2D
:10042000FF0E686EFF0E696E000E6A6E000E6B6E38
:10043000FF0E646EFF0E656E000E666E000E676E38
:10044000FF0E6C6EFF0E6D6E000E6E6E000E6F6E08
:10045000AC8A900EAB6E948E949C9EAA03D0AECFC5
:0604600000F0FBD71200C2
:100466007C6A7D6A70C078F071C079F072C07AF0EB
:1004760073C07BF07B50FF0A08E17A50FF0A05E162
:100486007950FF0A02E17850FF0A0DE174C081F04D
:1004960075C082F0270E0001836F000E846F6BDE3D
:1004A600030E006EEBD1010E766E7AAE0ED0800E84
:1004B6007A18006E00C07AF0762A74C0E1FF75C023
:1004C600E2FF2D0EE66E744A752A000E006E7B184A
:1004D60008E100507A1805E10050791802E17850D9
:1004E600000A0CE1000174C081F075C082F0210E93
:1004F600836F000E846F3FDE006AC0D17B50FF0A17
:1005060008E17A50000A05E17950000A02E17850C4
:10051600000A0DE1000174C081F075C082F0230E5F
:10052600836F000E846F27DE76C000F0A7D1000E21
:10053600046E000E056E000E066E7F0E076E78C006
:1005460000F079C001F07AC002F07BC003F0CADE89
:10055600010ED8B0000E006E00521BE078C000F00D
:1005660079C001F07AC002F07BC003F0000E046E81
:10057600000E056E200E066E820E076E23DE00C08C
:1005860078F001C079F002C07AF003C07BF07D06F6
:10059600CED7000E046E000E056E200E066E820E7D
:1005A600076E78C000F079C001F07AC002F07BC017
:1005B60003F098DE000ED8B0010E006E00521BE06C
:1005C60078C000F079C001F07AC002F07BC003F079
:1005D600CD0E046ECC0E056E4C0E066E7B0E076EAF
:1005E600F1DD00C078F001C079F002C07AF003C0F6
:1005F6007BF07D2ACED7FF0E7814086EFF0E791495
:10060600096E7F0E7A140A6E000E7B140B6E08C0FC
:1006160004F009C005F00AC006F00BC007F0043666
:100626000490053606360736000E7814006E000E66
:100636007914016E000E7A14026EFF0E7B14036E9F
:1006460000C078F001C079F002C07AF003C07BF0F8
:1006560004507810006E05507910016E06507A101D
:10066600026E07507B10036E00C078F001C079F06F
:1006760002C07AF003C07BF07F0E7B5C006E00C088
:1006860077F0010E7B6E00C004F078C000F079C0F0
:1006960001F07AC002F07BC003F0045007E0003698
:1006A6000090013602360336FF0FF8D700C078F007
:1006B60001C079F002C07AF003C07BF074C0E1FF9C
:1006C60075C0E2FF7B50300FE66E744A752A800EC5
:1006D6007D18006E800E010A005C08E3800E060A93
:1006E600006E800E7D18005C01E30AD074C0E1FF45
:1006F60075C0E2FF2E0EE66E744A752A010E7C6EF8
:10070600060E776E7750000A54E07B6A78C000F0D8
:1007160079C001F07AC002F07BC003F00036009089
:1007260001360236033600360090013602360336AD
:1007360078500026795001227A5002227B500322FB
:1007460000C078F001C079F002C07AF003C07BF0F7
:1007560078C000F079C001F07AC002F07BC003F0E7
:100766000036009001360236033600C078F001C02C
:1007760079F002C07AF003C07BF074C0E1FF75C067
:10078600E2FF7B50300FE66E744A752A7C50000AF1
:100796000EE17D067D50000A0AE174C0E1FF75C0D6
:1007A600E2FF2E0EE66E744A752A010E7C6E7706FF
:1007B600A9D7FF0E7424E96EFF0E7520EA6EEE507F
:1007C600300A05E1010E745E000E755AF2D7FF0E6F
:1007D6007424E96EFF0E7520EA6EEE502E0A04E1CF
:1007E600010E745E000E755A7D50000A41E074C019
:1007F600E1FF75C0E2FF650EE66E744A752A800E4B
:100806007D18006E800E000A005C0BE274C0E1FFEA
:1008160075C0E2FF2D0EE66E744A752A7D500008FB
:100826007D6E7DC077F0800E090A006E800E7D1801
:10083600005C0EE20A0E046E77C000F04DDC74C058
:10084600E1FF75C0E2FF0050300FE66E744A752A6C
:100856000A0E046E77C000F03FDC08C000F074C0DA
:10086600E1FF75C0E2FF0050300FE66E744A752A4C
:0E08760074C0E1FF75C0E2FFE66A006A12007E
:100884000450000A12E10550000A0FE10650000A64
:100894000CE10750000A09E1FF0E006EFF0E016E25
:1008A4007F0E026EFF0E036EA8D0086A096A075015
:1008B400D8B4EDEF04F00350D8B4F2EF04F00250D2
:1008C40006180A6E028E068E0E6A02C008F001C077
:1008D4000CF000C00DF004500D5E0550D8A0053C8E
:1008E4000C5E0650D8A0063C085E086A0C6A0D6AC5
:1008F400D8A084EF04F0D8900232013200320832DA
:10090400010E0E6E0750035ED8A091EF04F07E0E28
:100914000E240326D8B0F7EF04F097EF04F07E0E10
:100924000E240326D8A0FCEF04F0180E0B6E0D362F
:100934000C3608360036013602360E360450005E98
:100944000550D8A0053C015E0650D8A0063C025EC6
:1009540006340E120EA0B2EF04F00D80BDEF04F0C9
:10096400045000260550D8B0053C01260650D8B0E6
:10097400062802260D900B2E99EF04F0E3EF04F005
:10098400D8900036013602360E360450005E05500B
:10099400D8A0053C015E0650D8A0063C025E063491
:1009A4000E10010B0D26D8B00C2AD8B4082AD8A4EE
:1009B400E3EF04F008320C320D32032AD8B4F7EF17
:1009C40004F00AAE089E0850026E0C50016E0D50E1
:1009D400006EFFEF04F0010E32EC00F0FFEF04F0C4
:1009E400020E1FEC00F0FFEF04F0040E26EC00F002
:0C09F400FFEF04F0080E12EC00F01200FF
:100A0000C26A201C006E0050C116070EC012C08EB4
:100A100070C000F000360090003600900050C21206
:100A2000C280D1DCC282C2A201D0FDD7C4CF01F006
:0E0A3000006AC3500012000E0112C2901200A4
:100A3E0000C008F00150006E016A026A036A0B6A78
:100A4E000C6A016A026A036A960E036E0A6A00AEA7
:100A5E0037EF05F0081E001E082AD8B4002A0A8EA9
:100A6E0000C001F008C000F0086A026A36EC00F01F
:020A7E00120064
:100A8000CDEC05F0FF0E926E010EC26E0E0EC16E21
:100A9000B886B06A670EAF6EAC84BADC820E0C6E9C
:100AA000DD0E0D6E0D2EFED70C2EFCD700000000C3
:100AB0002D0E706E000E716E8BDC706AA1DF00C0AF
:100AC0002BF001C02CF0BBDF000E046E000E056E93
:100AD000200E066E810E076EE5EC00F0000E046E2F
:100AE000000E056E000E066E890E076ECBDE000E40
:100AF000046E000E056E480E066E850E076EE5EC60
:100B000000F000C01CF001C01DF002C01EF003C0C8
:100B10001FF000C070F001C071F002C072F003C09D
:100B200073F0420E746E000E756E9DDC420E706E98
:100B3000000E716E4DDC150E706E000E716E48DC8D
:100B40000A0E7E6E39DC0D0E7E6E36DC030E0B6EE9
:100B50008A0E0C6E550E0D6E0D2EFED70C2EFCD788
:0C0B60000B2EFAD700000000A8D7FFD72A
:100B9A0010EE15F02D0E006E010E016E6C0EF66E43
:0E0BAA000B0EF76E000EF86E00EC02F012005B
:070B6C00206F432E2E2E0026
:040B7300000000007E
:010B7700304D
:020B780030004B
:040B7A00494E46009A
:040B7E004E614E0076
:020B8200000071
:100B840054656D7065726174757261206D65646918
:050B940064613A20003D
:020000040030CA
:0D000100021F1EFF8381FF0FC00FE00F40A4
:00000001FF
