:1000000020EF01F00000000000EF00F00000000011
:0A0010000000000000000000F3D71C
:10001C00080E0C6E230E0D6E0D2EFED70C2EFCD77B
:02002C001200C0
:04002E0000001200BC
:0C003200100E0D6E0D2EFED70000120007
:10003E0025BE02D0839E01D0838E25BC02D0839C28
:10004E0001D0838C25BA02D0839A01D0838A25B839
:10005E0002D0839801D083881EB002D0838401D051
:10006E0083948386DDDF839625B602D0839E01D0EE
:10007E00838E25B402D0839C01D0838C25B202D00E
:10008E00839A01D0838A25B002D0839801D08388C9
:10009E001EB002D0838401D083948386C1DF839601
:0C00AE001EA002D0B4DF01D0BDDF1200A4
:0C00BA001E9024C025F0BEDF1E80120046
:1000C600959695949598959A959C959E83968394E6
:1000D600839E839C839A83989EDF9DDF9CDF838A21
:1000E60083888386A1DF839696DF83869DDF83964A
:1000F60092DF838699DF83968EDF8398838694DFEB
:10010600839689DF838690DF8396839A838E8386A0
:100116008BDF839680DF839E8388838685DF839645
:100126008398838681DF839676DF83867DDF839659
:100136008388838679DF83966EDF8398838674DF70
:100146008396838E838C838A838883866DDF8396EA
:0601560062DF1E801200B2
:10015C000900F5CFE6FF0006FBE10106F9E112000C
:10016C000FD0800E1F6E19D0C00E1F6E16D0940EBD
:10017C001F6E13D0D40E1F6E10D0800E1F6E0DD0BC
:10018C001F50010AEEE01F50020AEEE01F50030A56
:10019C00EEE01F50040AEEE0F0D72004006E1F5072
:1001AC00002600C01FF01E8000C025F042DF1E900C
:0A01BC0021C025F03EDF1E80120076
:1001C6000FD0800E1F6E19D0C00E1F6E16D0940E63
:1001D6001F6E13D0D40E1F6E10D0800E1F6E0DD062
:1001E6001F50010AEEE01F50020AEEE01F50030AFC
:1001F600EEE01F50040AEEE0F0D72004006E1F5018
:10020600002600C01FF000C025F016DF1E90236AEE
:1002160023502124E96E000E2220EA6EEE520BE0F6
:1002260023502124E96E000E2220EA6EEECF24F040
:0A02360041DF232AEDD71E801200DD
:10024000530E156E740E166E720E176E690E186EC2
:100250006E0E196E670E1A6E3A0E1B6E200E1C6E15
:100260001D6A31DF010E256EEADE0C0E256EE7DE1B
:10027000010E1F6E010E206E150E216E000E226EF5
:10028000A2DF020E1F6E020E206E480E216E6EDF80
:10029000650E246E12DF6C0E246E0FDF6C0E246E62
:1002A0000CDF6F0E246E09DF020E256EC8DEFFD74D
:020000040030CA
:0D00010001171EFF0381FF0FC00FE00F402D
:00000001FF
