:020000001628C0
:0E0006008312031321088A00200882000800DC
:1000140003208A110A128000840AA00A0319A10A83
:08002400F003031D0A28080087
:10002C0083120313A2013F30A3000630A4005B30FF
:10003C00A5004F30A6006630A7006D30A8007D30BB
:10004C00A9000730AA007F30AB006F30AC008316DC
:10005C00860183128601A2012208093C031C4B284D
:10006C002208233E8400000886000630FB00133073
:10007C00FC00AD30FD00FD0B4128FC0B4128FB0BB7
:0E008C00412800000000A20A322831284C282A
:02400E0022216D
:00000001FF
