:020000040000FA
:02000000A32833
:08000800C000030E8312C100C9
:100010000B1D9E280B11C50B0B280630C500643044
:1000200081009F149F1812281E08C2000310C20DE1
:100030000310C20D83161E088312C300C30DC30D27
:10004000C30D42084306C4000310C40CC60A460888
:10005000013A031950284608023A03195328460862
:10006000033A031956284608043A03195928460842
:10007000053A03195C284608063A03195F28460822
:10008000073A031962284608083A03196528460802
:10009000093A03196A2846080A3A031970289E2863
:1000A0004408C70077284408C80077284408C900D6
:1000B00077284408CA0077284408CB0077284408EA
:1000C000CC0077284408CD0077284408CE00CE0322
:1000D0004E0877284408CF00CF034F08C400772884
:1000E0004408D000D003D0035008D1077928D107A5
:1000F00089280130D500D301D201D4010230D400C7
:100100005108D300D40303199E28D3070318D20A39
:1001100082284408033A0319962844080D3A031923
:1001200098284408373A03199B289E2885149E284E
:10013000851005169E28051285169E28410E8300FF
:10014000C00E400E09008316863081000130850004
:1001500011309F008312A0308B00073099000130CE
:100160009F008510051285120630C500643081009D
:060170000515551CB9281D
:02400E00843FED
:00000001FF
