:020000040000FA
:020000000528D1
:0800080009008316FE3085009B
:10001000F3308600831200308500F7308600061525
:100020008614061486152D2086112D2006181228F8
:1000300006110430A0003F2086152D202D208611AA
:100040006430A0003F2086156430A0003F20861851
:100050001F2886112D20061512280514C830A0006F
:10006000FA30A100000000000000000000000000C5
:100070000000A10B3228A00B302805100800051441
:10008000FA30A100000000000000000000000000A5
:0E0090000000A10B4228A00B4028051008001C
:02400E00E13F90
:00000001FF
