:020000040000FA
:020000001428C2
:0800080006200900A000030E10
:100010008301A1000A08A2008A0122088A00210E99
:100020008300A00E200E090083160313FF30880002
:1000300086018312031385018601870188018901E6
:1000400083120313A3000301061801300000A3006C
:100050000301881801302304A3000301081C0130A8
:100060002305A3000301081D01302305A30003019C
:10007000861C01302305A3000139031D4128061009
:10008000422806142308A30003018618013000004B
:10009000A3000301081901302304A3000301081C75
:1000A00001302305A3000301881C01302305A300B0
:1000B0000301061C01302305A3000139031D62283A
:0A00C0008610632886142308202808
:02400E00393F38
:00000001FF
