:02000000422894
:0C000600831224088A00230882000800EE
:0C00120007308312DD00DD0B0C28080015
:10001E00C33083129F05F0309F052009D000500891
:10002E009F05F03083169F0483129F172508D0007A
:10003E00D00D5010D00D501050089F041F140920E1
:10004E009F149F1C2C28000028281F101E08D1006A
:0E005E00D00183161E08D0040030D104080023
:10006C0003208A110A128000840AA30A0319A40A25
:08007C00D003031D3628080023
:10008400942001308316850011309F0007308312BD
:10009400990001309F008501A5010F205008A1009F
:1000A4005108A20000305106031D5A2800305006A2
:1000B400031D6228831285140511051285128B28ED
:1000C4002208013A031D682800302106031D702808
:1000D400831285100515051285128B282208023A11
:1000E400031D762800302106031D7E288312851007
:1000F4000511051685128B282208023A031D84284F
:10010400EE302106031D8B2883128510051105127C
:0601140085164E288C2820
:100128002030840001308312D0009230A3000030C8
:06013800A40036200800BF
:02012400403465
:02400E00A431DB
:00000001FF
