:02000000062FC9
:10000800FF00030E8301EF000A088316AC008A0183
:1000180004088312A1008C1ECD29181916289818D7
:100028001628192818121816CD29A40A0613861698
:100038007F309A0500301A1B0130EC0020301A0579
:10004800F2000530F1007208F00071080319302839
:10005800F00CF013FF3E2A287008EC0608301A0549
:10006800F2007208F000F00CF013F00CF013F00C32
:10007800F0137008EC0600301A1B0130EB0010304A
:100088001A05F2007208F000F00CF013F00CF013EF
:10009800F00CF013F00CF0137008EB0608301A059A
:1000A800F2007208F000F00CF013F00CF013F00CF2
:1000B800F0137008EB0600309A1A0130EA0010308D
:1000C8001A05F2007208F000F00CF013F00CF013AF
:1000D800F00CF013F00CF0137008EA0608301A055B
:1000E800F2007208F000F00CF013F00CF013F00CB2
:1000F800F0137008EA0601301A058316A0000030D4
:1001080083129A1801308316A100003083121A193D
:1001180001308316A2008312A301033023020318BF
:10012800B22823086A3E84000008F0002308A03E95
:1001380084000008F00670080130031D0030F1004B
:100148007108A2007108003A031DB0288617061628
:100158008612A4038613B228A30A91282408013A18
:100168000130031D0030F0002208F0050319D828DB
:10017800861500301A1B01308316A6000030831242
:100188009A1A01308316A500003083121A1A01301A
:100198008316A400003083129A1901308316A30035
:1001A800831206128613CD292408023A0130031D52
:1001B8000030F0002208F0050319CD290614073095
:1001C800F00083162608F20070080319EF28F20DD4
:1001D8007210FF3EE92883160630F1002508F0006A
:1001E80071080319FB28F00D7010FF3EF5288316DF
:1001F80070087204F3000530F2002408F000F101E1
:10020800720803190C29F00DF10D7010FF3E052935
:1002180083167008F3040430F2002308F000F1019B
:10022800720803191C29F00DF10D7010FF3E1529F5
:1002380070087304F400403083121A05F100063088
:10024800F0007108F300700803192E29F30CF3135A
:10025800FF3E28290330F2007308F000F10172080C
:1002680003193B29F00DF10D7010FF3E342983125C
:100278007008F40420301A05F1000530F000710808
:10028800F300700803194C29F30CF313FF3E4629B9
:1002980083127308F000F101F00DF10D7010F00DEC
:1002A800F10D70107008F40410301A05F10071088F
:1002B800F300F30CF313F30CF313F30CF313F30C35
:1002C800F3137308F000F101F00DF10D70107008D0
:1002D8007404F30008301A05F2007208F000F00CFC
:1002E800F013F00CF013F00CF0130030F100730869
:1002F800F0047008E900EA260030F4000030F50048
:100308002030F6008130F700E0220030F4000030A1
:10031800F5000030F6008930F70098230030F4002B
:100328000030F5004830F6008530F700E02270080C
:10033800E5007108E6007208E7007308E80050302D
:100348008316AD004F244830AD004F248312650852
:100358008316AD00831266088316AE008312670801
:100368008316AF00831268088316B000A730B10067
:100378000530B2006E24A730AD004F243B30AD00ED
:100388004F242530AD004F248312A401061786118F
:1003980006102108840083162C088A0083126F0E29
:0803A8008300FF0E7F0E090027
:1003B0007B15FB1FE2290130F300F201F101F0018E
:0803C000FA0DF20CFF300800F9
:0E03C800F201F101F001F801F301003008002C
:0803D600FA1FF21300300800C9
:1003DE00FB14FB1FF929FF30F300F200F100F000CF
:0803EE00FA0DF20CFF300800CB
:0E03F600831203136E088A006D08820008004F
:06040400FB15FF300800AB
:10040A0083120313FA017308031D7A147708031D74
:10041A00FA147A080319512A033A03191C2A7A187A
:10042A00192AF61F4F2A4D2AF21F4D2A4F2A7208FF
:10043A008039FA00F21376088039F6137A0603191E
:10044A002A2A7A0803194D2A4F2A770873020319B0
:10045A00312A031C452A492A760872020319382AC6
:10046A00031C452A492A7508710203193F2A031CED
:10047A00452A492A740870020319512A0318492A7D
:10048A00FA0803194F2A4D2AFA0803194D2A4F2A46
:10049A0003140800031008000314031508000800D9
:1004AA00831603133E08F2007208F000F20A70087D
:1004BA00840000080319622A592A3E087202F000D1
:0C04CA000130F002F101031CF1030800F6
:1004D600831603133E08F2007208F100F20A3F0881
:1004E600F000BF0A700884000008F000710884005C
:1004F600700880007108840000080319832A6F2A97
:060506003E08F0000800B1
:10050C007C18BC2AFC188D2A7C19DB2A862AA001AF
:10051C007208031DAD2A7108F2007008F10078080A
:10052C00F000F801A0157208031DAD2A7108F20045
:10053C007008F100F001A01120167208031DAD2AFD
:10054C007108F200F101A01572080319CF2A2008D6
:10055C00F302031D031CD32A0310F21BBC2AF80D53
:10056C00F00DF10DF20DF30BB32AD32A7B1B701C8B
:10057C00D72AF81FD72AF00A0319F10A0319F20A2D
:10058C00031DD72AF20CF10CF00CF30A0319DB2A29
:10059C00D72A0130FC00E421DE2A0230FC00D821ED
:1005AC00DE2A0430FC00EB21DE2A0830FC00EF21AF
:0405BC000000080033
:1005C00083120313FB017308031D77080319372BEC
:1005D00072087606FA007708F3077E30031CF42AC7
:1005E000F30203183A2BF72AF302031C3D2B72087F
:1005F000F8007108FC007008FD00F817F6170310EA
:10060000F201F101F0011830A0007D1C112B7408DB
:10061000F00775080318750FF10776080318760FB1
:10062000F207F20CF10CF00CF80CFC0CFD0C0310B2
:10063000A00B052BF21B212BF80DF00DF10DF20D87
:10064000F3037B1B701C332BF81F332BF00A0319A9
:10065000F10A0319F20A031D332BF20CF10CF00C12
:10066000F30A03193A2BFA1FF21300303F2B013023
:10067000E4213F2B0230EF213F2B0430D821000032
:02068000080070
:1006820083120313FD01F801700803190034740684
:10069200FA00FA1BFD09FB01F41F512BF409F40ABD
:1006A200F01F552BF009F00A70087404FA00FA1BC7
:1006B200792B7408F802F00D700DF80D7408F80724
:1006C200F00D0630FC00700DF80D74087018F80279
:1006D200701CF807F00DFC0B642B701CF8077B18DC
:1006E200872BFD1F0034F009F00AF809F80A0034DC
:1006F200F41F842BF01B812B7008F800F001722B81
:10070200F001F00A0034F009FB0A5A2BF80A7408C7
:100712007802031D722BF801F00AF01F722BFF34CE
:020722000800CD
:0C072400831603139818972B922B0800E3
:10073000831203137408003A031DB32B7508003AA3
:10074000031DB32B7608003A031DB32B7708003A3C
:10075000031DB32BFF30F000FF30F1007F30F200BB
:10076000FF30F3004E2C8312031377080319422C39
:1007700073080319452C720876068039FA00F217BF
:10078000F617A0017208F8007108FC007008FD005F
:100790007408FD027508031C750FFC027608031C23
:1007A000760FF802F801FC01FD01031CDE2B03109B
:1007B000F20CF10CF00CF80C0130A0007708F302F9
:1007C000031CE82B7E302007F3070318482CED2B81
:1007D0007E302007F307031C4B2C1830FA07FD0D61
:1007E000FC0DF80DF00DF10DF20DA00D7408F002E6
:1007F0007508031C750FF1027608031C760FF202D0
:10080000760DA004201C062C7D14112C7408F00712
:1008100075080318750FF10776080318760AF207B2
:100820007D10FA031F307A05031DEF2B7B1B7D1C07
:10083000382C0310F00DF10DF20DA00D7408F0022C
:100840007508031C750FF1027608031C760FF2027F
:10085000760D20040139FD070318FC0A0319F80A74
:10086000031D382CF80CFC0CFD0CF30A0319482C62
:10087000FA1FF8137808F2007C08F1007D08F000F8
:1008800000304D2C013002224D2C0230E4214D2C41
:0E0890000430EF214D2C0830D8210000080064
:10089E0083160313AE01AF012D08BE005522803022
:1008AE002F06F200803071067202031D602C700854
:1008BE002E0203186D2C2E082D07840000088312BB
:0E08CE0099009223AE0A0319AF0A532C0800BA
:1008DC0083160313B901BA01BB01BC01BD012D087C
:1008EC00B5002E08B6002F08B7003008B80038083D
:1008FC00FF3A031D8B2C3708FF3A031D8B2C36084F
:10090C00FF3A031D8B2C3508FF3A031D952C31083B
:10091C00BE004430BF006B220330F000E92E0130E2
:10092C00B300B71FA52C80303706F0007008B70055
:10093C00B30ABA0A310884002D308000B10A0030A5
:10094C00F0003806031DB42C70083706031DB42CB8
:10095C0070083606031DB42C3508003A031DBD2C57
:10096C003108BE004230BF006B22F001E92E38087E
:10097C00FF3A031DCB2C3708003A031DCB2C36084D
:10098C00003A031DCB2C3508003A031DD52C310839
:10099C00BE003E30BF006B223308F000E92E003061
:1009AC00F4000030F5000030F6007F30F700350819
:1009BC00F0003608F1003708F2003808F300052281
:1009CC00013003180030F000700803190A2D83164B
:1009DC003508F0003608F1003708F2003808F3004B
:1009EC000030F4000030F5002030F6008230F700C3
:1009FC00E02270088316B5007108B6007208B700C3
:100A0C007308B800BD03D52C83160030F4000030F9
:100A1C00F5002030F6008230F7003508F00036087B
:100A2C00F1003708F2003808F30005220130031CEE
:100A3C000030F00070080319402D83163508F000C3
:100A4C003608F1003708F2003808F300CD30F40016
:100A5C00CC30F5004C30F6007B30F700E02270080B
:100A6C008316B5007108B6007208B7007308B80099
:100A7C00BD0A0A2D8316FF303505F800FF30360508
:100A8C00F9007F303705FA0000303805FB00780894
:100A9C00F4007908F5007A08F6007B08F700F40DED
:100AAC00F50DF60DF70D741000303505F000003023
:100ABC003605F10000303705F200FF303805F30041
:100ACC007008B5007108B6007208B7007308B8005A
:100ADC0074083504F00075083604F1007608370404
:100AEC00F20077083804F3007008B5007108B600FE
:100AFC007208B7007308B8007F303802F000700835
:100B0C00B4000130B8007008F4003508F000360865
:100B1C00F1003708F2003808F300740803199D2D12
:100B2C00F00DF10DF20DF30D7010FF3E942D7008C9
:100B3C00B5007108B6007208B7007308B800380821
:100B4C00303EF0003108840070088000B10ABA0A07
:100B5C0080303D06F0008030013A7002031CBF2D3E
:100B6C008030063AF00080303D067002031CBF2D29
:100B7C00C72D310884002E308000B10A0130B90035
:100B8C00BA0A0630B4003408003A0319292EB80109
:100B9C003508F0003608F1003708F2003808F30089
:100BAC00F00DF10DF20DF30D7010F00DF10DF20DC5
:100BBC00F30D70103508F00736080318360FF107DF
:100BCC0037080318370FF20738080318380FF307E4
:100BDC007008B5007108B6007208B7007308B80049
:100BEC003508F0003608F1003708F2003808F30039
:100BFC00F00DF10DF20DF30D70107008B5007108C9
:100C0C00B6007208B7007308B8003808303EF00020
:100C1C003108840070088000B10ABA0A3908003A19
:100C2C00031D272EBD033D08003A031D272E01305E
:100C3C00BC00310884002E308000B10A0130B900AC
:100C4C00BA0AB403C92D3C08013A031D2E2EBA036F
:100C5C00FF303107840000082E3A031D372EB103F4
:100C6C00BA038030003AF00080303D067002031861
:100C7C00412E0130BB0080303D06F0008030003A40
:100C8C00700203184B2E0230BB003D08B4008030BC
:100C9C00093AF00080303D067002031C572EBB0A47
:100CAC00592E0230BB073B083A07F100F20103183A
:100CBC00F20A80307206F00080307002031D682E3C
:100CCC00320871020318712E310884003030800014
:100CDC00B10ABA0A592E3D08003A0319B02E310850
:100CEC00840065308000B10A80303D06F000803011
:100CFC00003A700203188A2E310884002D308000CF
:100D0C00B10A3D08003CBD003D08B4008030093AF2
:100D1C00F00080303D0670020318A12E0A30F4005A
:100D2C003408F00041233030F0078316310884007A
:100D3C0070088000B10A0A30F4003408F000412336
:100D4C007808F0003030F007831631088400700802
:100D5C008000B10A3B083A07F0007008BA0032086C
:100D6C007002F1007108B4008030003AF00080305D
:100D7C00710670020318CE2E8030003AF0008030DD
:100D8C00340670020318CD2EB403B103C22EE52E27
:100D9C0080303406F0008030003A70020318E52EE3
:100DAC0080303406F0008030003A70020318E52ED3
:100DBC00B40A3108840030308000B10AD62E3108D4
:080DCC0084008001F001080021
:100DD400831203137008F800FB01FC019E30F3003A
:100DE400FA01F201F101F0010230FC008622080050
:100DF400FB218A110A128000840AED0A0319EE0A03
:080E0400F003031DFA2E0800A3
:100E0C006A2780308316031381001930990024302F
:100E1C009800903083129800203083168C00C030DC
:0E0E2C008B0006308600831286011B2F1C2FC0
:100ED40022308400483083120313F0002230ED00E6
:080EE4000730EE00FA260800B9
:020E4400003478
:020E4600003476
:020E4800003474
:100E4A000D340A340D340A3420342A342A342A342C
:100E5A002A342A342A342A342A342A342A342A3498
:0C0E6A002A34203420340D340A340034C3
:060E760020344334003477
:080E7C0049344E3446340034C1
:040E840030340034D2
:080E88004E3461344E34003495
:100E9000543465346D3470342E343A342034003494
:100EA0000D340A3420342A342A342A342A342A3499
:100EB0002A342A342A342A342A342A342A3420344C
:0A0EC0000D340A340D340A340034F6
:080ECA00003400340034003450
:020ED2000034EA
:02400E00292166
:00000001FF
