:040000009DEF01F07F
:1000080000C018F001C017F00CC016F00DC015F0B4
:10001800F2A446D1F2941B2A1B50990AD8A43FD1C6
:10002800246A68D900C01CF0838083901B6A020E82
:10003800D66E800E0014036E070E026E03C011F018
:10004800025004E01132119EFF0FFBD7400E00143E
:10005800036E060E026E03C010F0025004E0103268
:10006800109EFF0FFBD710501118046E100E0014CD
:10007800036E03C00FF00F320F9E0F320F9E0F3228
:100088000F9E0F320F9E0F5004180E6E0EC01DF0FB
:10009800080E0014036E03C00DF00D320D9E0D32D4
:1000A8000D9E0D320D9E040E0014036E03C00CF05D
:1000B8000C320C9E0C320C9E0C500D18026E010E68
:1000C80000140B6E0B5002180A6E0AC019F0200EAD
:1000D8000014036E050E026E03C009F0025004E01E
:1000E8000932099EFF0FFBD709501118026E0F50F5
:1000F8000218086E08C01AF0020E0014016E01C042
:1001080007F00732079E07500D18006E0B500018B5
:10011800066E06C01EF009501018006E0F50001829
:10012800056E05C021F007500C18006E0B50001822
:10013800046E04C022F0060E006E11C003F00050D9
:1001480004E003360390FF0FFBD7050E026E10C0C4
:1001580000F0000E016E025005E0003600900136F6
:10016800FF0FFAD700500312040E026E09C000F008
:10017800000E016E025005E0003600900136FF0FB8
:10018800FAD700500312030E026E0FC000F0000EE3
:10019800016E025005E0003600900136FF0FFAD7D5
:1001A800005003120EC000F0000E016E00360090E1
:1001B80001360036009001360050031208C000F0E6
:1001C800000E016E00360090013600500310026EDA
:1001D80005C000F0000E016E00500210036E03C04F
:1001E80023F0060E006E0DC020F0005004E020360B
:1001F8002090FF0FFBD7050E026E0CC000F0000E1A
:10020800016E025005E0003600900136FF0FFAD764
:1002180000502012040E026E07C000F0000E016E9E
:10022800025005E0003600900136FF0FFAD7005063
:100238002012030E026E0BC000F0000E016E025079
:1002480005E0003600900136FF0FFAD70050201263
:100258000AC000F0000E016E00360090013600362C
:10026800009001360050201206C000F0000E016E0A
:100278000036009001360050201204C000F0000E35
:10028800016E0050201203C024F028D883B201D098
:10029800FDD720C024F022D883B401D0FDD70CD0DC
:1002A800F2A20AD0F29283B204D023C024F016D866
:1002B80003D020C024F012D818C000F017C001F0F5
:0A02C80016C00CF015C00DF0110077
:0A02D200070E0D6E0D2EFED7120070
:0802DC00ACB201D0FDD7120005
:0802E40024C0ADFFF9DF120098
:1002EC000900F5CFE6FF0006FBE10106F9E112007B
:1002FC00C26A1F1C006E0050C116070EC012C08EC1
:10030C0024C000F000360090003600900050C2125D
:10031C00C280D9DFC282C2A201D0FDD7C4CF01F006
:0E032C00006AC3500012000E0112C2901200AF
:10033A00D2EC01F0240EAC6E800EAB6E190EAF6ECD
:10034A00B86AF00EF26EC40EF16EC70ED56E010ECB
:10035A00936EC00E946EFF0E926E060E956E806AB4
:10036A00816A826A836A010EC26E0E0EC16E820EA5
:10037A000C6EDD0E0D6E0D2EFED70C2EFCD7000076
:0E038A000000980E1B6EFF0ED66EFFD7FFD739
:1003A40010EE19F00B0E006E010E016E980EF66E33
:0E03B400030EF76E000EF86E76EC01F01200EC
:010398000064
:010399000063
:01039A000062
:01039B000061
:01039C000060
:01039D00005F
:01039E00302E
:01039F00005D
:0103A000005C
:0103A100005B
:0103A200005A
:020000040030CA
:0D000100011F1EFF8381FF0FC00FE00F40A5
:00000001FF
